:020000040000FA
:040000004CEF00F0D1
:100008002582D9CF03F0DACF04F0010E9DA0000EAF
:100018009EA0000EE8A007D03C0ECF6EAF0ECE6EAD
:10002800010E246E9E909DBC9EAC0CD0C350C4CFD4
:1000380001F0026A01C002F0016A0110206E02504C
:10004800216E9E9C9DBA9EAA17D0AECF05F03D0E9C
:100058000518D8A408D023C0B0F0000E236E010EF6
:100068000001B16F09D0600E2324D96EDA6A000E40
:10007800DA2205C0DFFF232A9DB89EA803D0B2C0AC
:10008800ADFF9D9804C0DAFF03C0D9FF2592110087
:100098005BEF09F0000E126E030E116E000E166E65
:1000A800030E156E000E146E000E136ECAD0BC0E31
:1000B800076EFE0E086E010EDAEC08F0D7D0890E36
:1000C800076EFE0E086E010EDAEC08F0CFD0560E61
:1000D800076EFE0E086E010EDAEC08F0C7D0AC0E03
:1000E800076EFD0E086E010EDAEC08F0010E076EC1
:1000F800FE0E086E020EDAEC08F0000E146E010E09
:10010800136EB4D015C00FF016C010F01050000ACE
:10011800D8A4ACD00F50000AD8B4E1D7010AD8B49B
:10012800D6D7030AD8B4CBD7010AD8B4C0D79ED043
:10013800AB0E076EFE0E086E010EDAEC08F096D0D4
:10014800780E076EFE0E086E010EDAEC08F08ED0FF
:10015800450E076EFE0E086E010EDAEC08F086D02A
:10016800AC0E076EFD0E086E010EDAEC08F0010EFB
:10017800076EFE0E086E020EDAEC08F0BED715C048
:100188000FF016C010F01050000AD8A46FD00F500E
:10019800000AD8B4E5D7010AD8B4DAD7030AD8B424
:1001A800CFD7010AD8B4C4D761D09A0E076EFE0E15
:1001B800086E010EDAEC08F059D0670E076EFE0ED5
:1001C800086E010EDAEC08F051D0340E076EFE0E00
:1001D800086E010EDAEC08F049D0AC0E076EFD0E81
:1001E800086E010EDAEC08F0010E076EFE0E086EBE
:1001F800020EDAEC08F081D715C00FF016C010F027
:100208001050000AD8A432D00F50000AD8B4E5D74D
:10021800010AD8B4DAD7030AD8B4CFD7010AD8B4B8
:10022800C4D724D0AC0E076EFD0E086E010EDAECB2
:1002380008F0120E076EFE0E086E020EDAEC08F0D9
:100248005CD711C00FF012C010F01050000AD8A4EB
:100258000DD00F50000AD8B4E5D7010AD8B4CCD7CE
:10026800030AD8B48CD7010AD8B44CD71304141095
:10027800D8A40DD0150E106E4B0E0F6EBE0EE82EC4
:10028800FED70F2EFCD7102EFAD700D0F3D2F70ED8
:100298000F6EC00EE82EFED70F2EFCD7DE0E076EAF
:1002A800FE0E086E020EDAEC08F0030E106E080E51
:1002B8000F6E770EE82EFED70F2EFCD7102EFAD72A
:1002C80000F0EF0E076EFE0E086E020EDAEC08F074
:1002D800030E106E080E0F6E770EE82EFED70F2E47
:1002E800FCD7102EFAD700F0000E076EFF0E086E2E
:1002F800020EDAEC08F0030E106E080E0F6E770E81
:10030800E82EFED70F2EFCD7102EFAD700F0110ECC
:10031800076EFF0E086E020EDAEC08F0030E106E80
:10032800080E0F6E770EE82EFED70F2EFCD7102E74
:10033800FAD700F0220E076EFF0E086E020EDAECF6
:1003480008F0030E106E080E0F6E770EE82EFED71B
:100358000F2EFCD7102EFAD700F0330E076EFF0EC3
:10036800086E020EDAEC08F0030E106E080E0F6E1F
:10037800770EE82EFED70F2EFCD7102EFAD700F0F6
:10038800440E076EFF0E086E020EDAEC08F0030E3C
:10039800106E080E0F6E770EE82EFED70F2EFCD7C4
:1003A800102EFAD700F0550E076EFF0E086E020EDB
:1003B800DAEC08F0030E106E080E0F6E770EE82EBA
:1003C800FED70F2EFCD7102EFAD700F0660E076E58
:1003D800FF0E086E020EDAEC08F0030E106E080E1F
:1003E8000F6E770EE82EFED70F2EFCD7102EFAD7F9
:1003F80000F0770E076EFF0E086E020EDAEC08F0BA
:10040800030E106E080E0F6E770EE82EFED70F2E15
:10041800FCD7102EFAD700F0880E076EFF0E086E74
:10042800020EDAEC08F0030E106E080E0F6E770E4F
:10043800E82EFED70F2EFCD7102EFAD700F0990E13
:10044800076EFF0E086E020EDAEC08F0030E106E4F
:10045800080E0F6E770EE82EFED70F2EFCD7102E43
:10046800FAD700F0AA0E076EFF0E086E020EDAEC3D
:1004780008F0F70E0F6EC00EE82EFED70F2EFCD731
:1004880080A409D00D0E0F6EFC0EE82EFED70F2E9D
:10049800FCD78050CED01506D8A01606CAD0BC0E00
:1004A800076EFE0E086E010EDAEC08F0D7D0890E42
:1004B800076EFE0E086E010EDAEC08F0CFD0560E6D
:1004C800076EFE0E086E010EDAEC08F0C7D0AC0E0F
:1004D800076EFD0E086E010EDAEC08F0010E076ECD
:1004E800FE0E086E020EDAEC08F0000E146E010E15
:1004F800136EB4D015C00FF016C010F01050000ADB
:10050800D8A4ACD00F50000AD8B4E1D7010AD8B4A7
:10051800D6D7030AD8B4CBD7010AD8B4C0D79ED04F
:10052800AB0E076EFE0E086E010EDAEC08F096D0E0
:10053800780E076EFE0E086E010EDAEC08F08ED00B
:10054800450E076EFE0E086E010EDAEC08F086D036
:10055800AC0E076EFD0E086E010EDAEC08F0010E07
:10056800076EFE0E086E020EDAEC08F0BED715C054
:100578000FF016C010F01050000AD8A46FD00F501A
:10058800000AD8B4E5D7010AD8B4DAD7030AD8B430
:10059800CFD7010AD8B4C4D761D09A0E076EFE0E21
:1005A800086E010EDAEC08F059D0670E076EFE0EE1
:1005B800086E010EDAEC08F051D0340E076EFE0E0C
:1005C800086E010EDAEC08F049D0AC0E076EFD0E8D
:1005D800086E010EDAEC08F0010E076EFE0E086ECA
:1005E800020EDAEC08F081D715C00FF016C010F033
:1005F8001050000AD8A432D00F50000AD8B4E5D75A
:10060800010AD8B4DAD7030AD8B4CFD7010AD8B4C4
:10061800C4D724D0AC0E076EFD0E086E010EDAECBE
:1006280008F0120E076EFE0E086E020EDAEC08F0E5
:100638005CD711C00FF012C010F01050000AD8A4F7
:100648000DD00F50000AD8B4E5D7010AD8B4CCD7DA
:10065800030AD8B48CD7010AD8B44CD713041410A1
:10066800D8B408D6F70E0F6EC00EE82EFED70F2EA0
:10067800FCD7990E076EFF0E086E020EDAEC08F032
:10068800030E106E080E0F6E770EE82EFED70F2E93
:10069800FCD7102EFAD700F0880E076EFF0E086EF2
:1006A800020EDAEC08F0030E106E080E0F6E770ECD
:1006B800E82EFED70F2EFCD7102EFAD700F0770EB3
:1006C800076EFF0E086E020EDAEC08F0030E106ECD
:1006D800080E0F6E770EE82EFED70F2EFCD7102EC1
:1006E800FAD700F0660E076EFF0E086E020EDAECFF
:1006F80008F0030E106E080E0F6E770EE82EFED768
:100708000F2EFCD7102EFAD700F0550E076EFF0EED
:10071800086E020EDAEC08F0030E106E080E0F6E6B
:10072800770EE82EFED70F2EFCD7102EFAD700F042
:10073800440E076EFF0E086E020EDAEC08F0030E88
:10074800106E080E0F6E770EE82EFED70F2EFCD710
:10075800102EFAD700F0330E076EFF0E086E020E49
:10076800DAEC08F0030E106E080E0F6E770EE82E06
:10077800FED70F2EFCD7102EFAD700F0220E076EE8
:10078800FF0E086E020EDAEC08F0030E106E080E6B
:100798000F6E770EE82EFED70F2EFCD7102EFAD745
:1007A80000F0110E076EFF0E086E020EDAEC08F06C
:1007B800030E106E080E0F6E770EE82EFED70F2E62
:1007C800FCD7102EFAD700F0000E076EFF0E086E49
:1007D800020EDAEC08F0030E106E080E0F6E770E9C
:1007E800E82EFED70F2EFCD7102EFAD700F0EF0E0A
:1007F800076EFE0E086E020EDAEC08F0030E106E9D
:10080800080E0F6E770EE82EFED70F2EFCD7102E8F
:10081800FAD700F0DE0E076EFE0E086E020EDAEC56
:1008280008F0030E106E080E0F6E770EE82EFED736
:100838000F2EFCD7102EFAD700F0CD0E076EFE0E45
:10084800086E020EDAEC08F0F70E0F6EC00EE82EF6
:10085800FED70F2EFCD782A009D00D0E0F6EFC0E0E
:10086800E82EFED70F2EFCD78250EBD41106D8A065
:100878001206E7D4000E0E6E040E0D6E120027D17C
:1008880080A80DD00D0E1E6EFC0EE82EFED71E2E73
:10089800FCD780A804D0010E226E80B8FED780A6AF
:1008A8000DD00D0E1E6EFC0EE82EFED71E2EFCD7A8
:1008B80080A604D0050E226E80B6FED7A9EC09F0FA
:1008C800000E0EEC09F0120082A00DD00D0E1E6E67
:1008D800FC0EE82EFED71E2EFCD782A004D0000EF8
:1008E800226E82B0FED780A80DD00D0E1E6EFC0EB3
:1008F800E82EFED71E2EFCD780A804D0020E226E4A
:1009080080B8FED780A60DD00D0E1E6EFC0EE82E08
:10091800FED71E2EFCD780A604D0060E226E80B607
:10092800FED79AEC09F0120082A00DD00D0E1E6EB3
:10093800FC0EE82EFED71E2EFCD782A004D0010E96
:10094800226E82B0FED780A80DD00D0E1E6EFC0E52
:10095800E82EFED71E2EFCD780A804D0030E226EE8
:1009680080B8FED780A60DD00D0E1E6EFC0EE82EA8
:10097800FED71E2EFCD780A604D0070E226E80B6A6
:10098800FED78BEC09F0000EBE6E120082A00DD0CF
:100998000D0E1E6EFC0EE82EFED71E2EFCD782A072
:1009A80004D0020E226E82B0FED780A80DD00D0EA4
:1009B8001E6EFC0EE82EFED71E2EFCD780A804D093
:1009C800040E226E80B8FED780A60DD00D0E1E6EC6
:1009D800FC0EE82EFED71E2EFCD780A604D0080EEB
:1009E800226E80B6FED77CEC09F0000E0EEC09F002
:1009F800120082A00DD00D0E1E6EFC0EE82EFED742
:100A08001E2EFCD782A004D0030E226E82B0FED721
:100A180080A60DD00D0E1E6EFC0EE82EFED71E2EE3
:100A2800FCD780A604D0090E226E80B6FED76DECE6
:100A380009F0120080A40DD00D0E1E6EFC0EE82EDB
:100A4800FED71E2EFCD780A404D0000E226E80B4E0
:100A5800FED792EC05F0120080A40DD00D0E1E6E8C
:100A6800FC0EE82EFED71E2EFCD780A404D0010E63
:100A7800226E80B4FED78DEC06F0120080A40DD053
:100A88000D0E1E6EFC0EE82EFED71E2EFCD780A47F
:100A980004D0020E226E80B4FED72FEC09F01200AB
:100AA80080A40DD00D0E1E6EFC0EE82EFED71E2E55
:100AB800FCD780A404D0030E226E80B4FED76DEC60
:100AC80007F012004EEC00F00D50226E120022507A
:100AD8001E6E1F6A1F50000AD8A412001E50000A7A
:100AE800D8B4CED6010AD8B4EFD6030AD8B41CD7E6
:100AF800010AD8B44BD7070AD8B47BD7010AD8B4AF
:100B080099D7030AD8B4A8D7010AD8B4B7D70F0A17
:100B1800D8B4C6D7010AD8A41200D4D7430E076E9A
:100B2800FD0E086E010EDAEC08F0430E076EFD0E9E
:100B3800086E020EDAEC08F0000E0EEC09F0020E58
:100B48000E6E040E0D6EBA0EE82EFED70D2EFCD7D3
:100B58000E2EFAD700D0000E106E010E0F6E0F5039
:100B68000EEC09F0020E0E6E040E0D6EBA0EE82E93
:100B7800FED70D2EFCD70E2EFAD700D0D8900F3402
:100B88000F6E1034106E10BEEAD7105004E1210E1B
:100B98000F5CD8A0E4D7000E106E010E0F6E200E69
:100BA8000F240F6E000E1020106E0F500EEC09F07F
:100BB800E00E0F240F6EFF0E1020106E020E0E6E48
:100BC800040E0D6EBA0EE82EFED70D2EFCD70E2E93
:100BD800FAD700D0D8900F340F6E1034106E10BEB4
:100BE800DED7105004E1110E0F5CD8A0D8D7000E44
:100BF800106E010E0F6E300E0F240F6E000E1020B7
:100C0800106E0F500EEC09F0D00E0F240F6EFF0E71
:100C18001020106E020E0E6E040E0D6EBA0EE82E27
:100C2800FED70D2EFCD70E2EFAD700D0D8900F3451
:100C38000F6E1034106E10BEDED7105004E1090E8E
:100C48000F5CD8A0D8D7000E106E010E0F6E380EAC
:100C58000F240F6E000E1020106E0F500EEC09F0CE
:100C6800C80E0F240F6EFF0E1020106E020E0E6EAF
:100C7800040E0D6EBA0EE82EFED70D2EFCD70E2EE2
:100C8800FAD700D0D8900F340F6E1034106E10BE03
:100C9800DED7105004E1050E0F5CD8A0D8D7000E9F
:100CA800106E010E0F6E3C0E0F240F6E000E1020FA
:100CB800106E0F500EEC09F0C40E0F240F6EFF0ECD
:100CC8001020106E020E0E6E040E0D6EBA0EE82E77
:100CD800FED70D2EFCD70E2EFAD700D0D8900F34A1
:100CE8000F6E1034106E10BEDED7105004E1030EE4
:100CF8000F5CD8A0D8D78C94020E0E6E040E0D6E21
:100D0800BA0EE82EFED70D2EFCD70E2EFAD700D03D
:100D18001200BB0E076EFF0E086E010EDAEC08F02B
:100D2800BB0E076EFF0E086E020EDAEC08F0000E1E
:100D38001C6E010E1B6E000E186E000E176E000E54
:100D48001A6E000E196E0001B151D8B4FCD7000E0E
:100D5800B16FB0C011F0126AB0C013F0146A42D07B
:100D6800600E1324D96E000E1420DA6EDF501D6E4B
:100D78002B0E1D18D8B40CD02D0E1D18D8B408D0C1
:100D88002A0E1D18D8B404D02F0E1D18D8A406D0CA
:100D98001DC010F01106D8A0120626D01D50D00F85
:100DA8001D6E1DC006F0076A1BC008F01CC009F0C4
:100DB80048EC09F00650192607501A221BC006F005
:100DC8001CC007F0000E096E0A0E086E48EC09F008
:100DD80006C01BF007C01CF01106D8A012061306A7
:100DE800D8A0140614AEBCD7000E1C6E010E1B6EE4
:100DF80011C015F012C016F016BE55D0600E15249D
:100E0800D96E000E1620DA6EDF50D00F1D6E1DC091
:100E180006F0076A1BC008F01CC009F048EC09F08E
:100E280006501726075018221BC006F01CC007F0F2
:100E3800000E096E0A0E086E48EC09F006C01BF099
:100E480007C01CF01506D8A01606D6D719501724C7
:100E58000001B26F1A50182006D01950175C000113
:100E6800B26F1A501858B36F32D017C006F018C0B6
:100E780007F019C008F01AC009F048EC09F006C0DC
:100E8800B2F007C0B3F023D017C006F018C007F0BF
:100E980019C008F01AC009F098EC08F006C0B2F0C2
:100EA80007C0B3F014D010500E6E0F6A0F50000A2E
:100EB800D8A40DD00E502A0AD8B4D7D7010AD8B46E
:100EC800C5D7060AD8B4C9D7020AD8B4DDD79D88D1
:100ED8003AD7C08EC250830B1009C26E680E076ED7
:100EE800FD0E086E010EDAEC08F0230E076EFE0EFA
:100EF800086E020EDAEC08F0000E0E6EC282215067
:100F080006E1910E205CD8B002D0000E4DD02150E1
:100F180004E1910E205CD8A008D0220E205C010EBE
:100F28002158D8B002D0200E3FD0220E205C010EEE
:100F38002158D8A008D0B30E205C010E2158D8B093
:100F480002D0300E31D0B30E205C010E2158D8A04B
:100F580008D0490E205C020E2158D8B002D0380EB5
:100F680023D0490E205C020E2158D8A008D0DA0EF2
:100F7800205C020E2158D8B002D03C0E15D0DA0EF3
:100F8800205C020E2158D8A008D06B0E205C030EFE
:100F98002158D8B002D03E0E07D06B0E205C030E4D
:100FA8002158D8A002D03F0E0E6E0E500EEC09F05C
:100FB800820E0D6EDE0EE82EFED70D2EFCD7120027
:100FC8000F013B913B9395809582929089806C505C
:100FD800F00B08096C6E130E6E6E6C8A340E076E79
:100FE800F20EE82EFED7072EFCD76B806BB0FED72B
:100FF800A49E7C0EC4EC09F0800EC4EC09F0380EF7
:10100800C4EC09F0800EC4EC09F0390EC4EC09F008
:10101800800EC4EC09F0170EC4EC09F0800EC4EC85
:1010280009F07A0EC4EC09F0800EC4EC09F05E0EEB
:10103800C4EC09F0800EC4EC09F06B0EC4EC09F0A6
:10104800800EC4EC09F00C0EC4EC09F0800EC4EC60
:1010580009F0010EC4EC09F0800EC4EC09F0060E8C
:10106800C4EC09F0800EC4EC09F0020EC4EC09F0DF
:101078006B846BB4FED7340E076EF20EE82EFED7E3
:10108800072EFCD71200000E0F01386F000E3A6FC2
:101098009594959694989598959A959C8C848C8619
:1010A8008B888C888C8A8C8C928892869284948087
:1010B8000C0EAF6EAC98AB8EAC8AAB88000E956EFA
:1010C800948C948E3F0ECD16300ECD12F28CF28E8B
:1010D8009D80CD809E9C9D8C9D8A928A388BC05025
:1010E800F80B0609C06EF30EC116FC0EC116C050EF
:1010F800C70B3009C06EC280010E3C6F9484B98062
:10110800FC0E4917C70EBB6E3F0EBD16BD50F00B47
:101118000C09BD6E000EBE6EFC0EBA169E92BA8405
:101128009EA2FED794941200000E0B6E09AE06D054
:10113800086C091ED8B0092A010E0B6E07AE06D03E
:10114800066C071ED8B0072A010E0B1A000E0D6E8A
:10115800000E0C6E08500910D8B41CD0010E0A6E8F
:1011680004D0D890083609360A2A09AEFAD7D8909A
:101178000C360D360850065C09500758D8A005D023
:101188000850065E0950075A0C80D8900932083278
:101198000A2EEDD70B50D8B404D00C6C0D1ED8B065
:1011A8000D2A0CC006F00DC007F012000B6E6B8004
:1011B8006BB0FED7A49E7C0EC4EC09F0800EC4EC84
:1011C80009F00B04D8A404D0800EC4EC09F007D0B1
:1011D800020E0B18D8A403D0C00EC4EC09F0400EC0
:1011E800C4EC09F0000E0C6E0C500724096E000EBA
:1011F80008200A6E09C0F6FF0AC0F7FF0800F5507C
:10120800C4EC09F00C2A0F0E0C64EED76B846BA4A7
:101218001200FDD7066E061E06A002D08C8401D0EF
:101228008C9406A202D08C8601D08C9606A402D09B
:101238008B8801D08B9806A602D08C8801D08C9818
:1012480006A802D08C8A01D08C9A06AA02D08C8C6F
:1012580012008C9C1200C09EC250830B1409C26EEF
:10126800CC0E076EFF0E086E010EDAEC08F0CC0EFD
:10127800076EFF0E086E020EDAEC08F0C282C2B2E8
:10128800FED7C4CFBEFF120006500802F3CF0AF003
:10129800F4CF0BF006500902F3500B260750080252
:1012A800F3500B260AC006F00BC007F0120000EE40
:1012B80060F0540EEE6AE806FDE1246A236A226AA9
:1012C800216A206A25902592000EF86E0001B8EF79
:1012D80009F09B0E076EFD0E086E010EDAEC08F0A1
:1012E800570E076EFD0E086E020EDAEC08F01200BB
:1012F800BD0E076EFD0E086E010EDAEC08F0EE0E5C
:10130800076EFF0E086E020EDAEC08F01200CE0E21
:10131800076EFD0E086E010EDAEC08F0DD0E076EA2
:10132800FF0E086E020EDAEC08F01200790E076E56
:10133800FD0E086E010EDAEC08F0F00E076EFD0ED9
:10134800086E020EDAEC08F012008A0E076EFD0E27
:10135800086E010EDAEC08F0DF0E076EFD0E086E5F
:10136800020EDAEC08F0120047EC08F0E4EC07F0A3
:101378002450D8B4FDD743EC04F0000E246EF8D7FF
:10138800066E06C06FFF6DB0FED7A4AEFED7A49E52
:02139800120041
:10FD42000053746174653A2054657472697320209B
:10FD520020202020002020202020202020202020C1
:10FD620020202020200053746174653A20414443CE
:10FD72002020202020200020302E2054657472691B
:10FD820073202020202020002D302E2054657472F4
:10FD92006973202020202020002D343A2031442075
:10FDA200506F6E6720202020200020202047414DE8
:10FDB20045204F564552212020200020323A205023
:10FDC200574D206D6F746F72202020002D323A2023
:10FDD20050574D206D6F746F722020200020312EFD
:10FDE200204B616C6B756C61636B612020002D315F
:10FDF2002E204B616C6B756C61636B61202000205F
:10FE020020506C61796572203120776F6E2020005E
:10FE12002020506C61796572203220776F6E20202D
:10FE220000202020202020206261726772617068A9
:10FE320020005A69766F74793A202B2020202020E6
:10FE4200202B005A69766F74793A202B2B202020C0
:10FE520020202B005A69766F74793A202B2B2B20A5
:10FE62002020202B005A69766F74793A202B2020AB
:10FE72002020202B2B005A69766F74793A202B2B85
:10FE8200202020202B2B005A69766F74793A202B80
:10FE92002B2B2020202B2B005A69766F74793A2065
:10FEA2002B202020202B2B2B005A69766F74793A55
:10FEB200202B2B2020202B2B2B005A69766F747954
:10FEC2003A202B2B2B20202B2B2B004D6F20202078
:10FED200202020202020202020204D004D206F2097
:10FEE20020202020202020202020204D004D2020D6
:10FEF2006F20202020202020202020204D004D2077
:10FF020020206F202020202020202020204D004D66
:10FF1200202020206F2020202020202020204D0083
:10FF22004D20202020206F20202020202020204D26
:10FF3200004D2020202020206F2020202020202063
:10FF42004D004D202020202020206F202020202026
:10FF5200204D004D20202020202020206F20202016
:10FF620020204D004D2020202020202020206F2006
:10FF72002020204D004D2020202020202020202045
:10FF82006F2020204D004D202020202020202020E6
:10FF920020206F20204D004D2020202020202020D6
:10FFA200202020206F204D004D20202020202020C6
:10FFB2002020202020206F4D0053746174653A6B1D
:10FFC200616C6B756C61636B610053746174653A4B
:10FFD2006D6F746F7253706565640020333A20410F
:10FFE2004443206261726772617068002D333A2067
:0EFFF2004144432062617267726170680000D2
:020000040020DA
:08000000FFFFFFFFFFFFFFFF00
:020000040030CA
:0E000000FF231F3CFFBF85FF0FC00FE00F4026
:00000001FF
